{"abi":[{"type":"constructor","inputs":[],"stateMutability":"nonpayable"},{"type":"fallback","stateMutability":"payable"},{"type":"receive","stateMutability":"payable"},{"type":"function","name":"addressToAmountFunded","inputs":[{"name":"","type":"address","internalType":"address"}],"outputs":[{"name":"","type":"uint256","internalType":"uint256"}],"stateMutability":"view"},{"type":"function","name":"fund","inputs":[],"outputs":[],"stateMutability":"payable"},{"type":"function","name":"funders","inputs":[{"name":"","type":"uint256","internalType":"uint256"}],"outputs":[{"name":"","type":"address","internalType":"address"}],"stateMutability":"view"},{"type":"function","name":"getVersion","inputs":[],"outputs":[{"name":"","type":"uint256","internalType":"uint256"}],"stateMutability":"view"},{"type":"function","name":"minimumUsd","inputs":[],"outputs":[{"name":"","type":"uint256","internalType":"uint256"}],"stateMutability":"view"},{"type":"function","name":"owner","inputs":[],"outputs":[{"name":"","type":"address","internalType":"address payable"}],"stateMutability":"view"},{"type":"function","name":"withdraw","inputs":[],"outputs":[],"stateMutability":"nonpayable"},{"type":"error","name":"FundMe__NotOwner","inputs":[]}],"bytecode":{"object":"0x60a060405234801561001057600080fd5b503360805260805161074f6100376000396000818161012301526102d1015261074f6000f3fe6080604052600436106100745760003560e01c80633e47d6f31161004e5780633e47d6f3146100e45780638da5cb5b14610111578063b60d428814610083578063dc0d3dff1461015d57610083565b8063098de8201461008b5780630d8e6e2c146100ba5780633ccfd60b146100cf57610083565b366100835761008161017d565b005b61008161017d565b34801561009757600080fd5b506100a7674563918244f4000081565b6040519081526020015b60405180910390f35b3480156100c657600080fd5b506100a7610244565b3480156100db57600080fd5b506100816102c6565b3480156100f057600080fd5b506100a76100ff366004610588565b60016020526000908152604090205481565b34801561011d57600080fd5b506101457f000000000000000000000000000000000000000000000000000000000000000081565b6040516001600160a01b0390911681526020016100b1565b34801561016957600080fd5b506101456101783660046105b1565b610411565b674563918244f4000061018f3461043b565b10156101e25760405162461bcd60e51b815260206004820152601860248201527f6469646e27742073656e6420656e6f756768206d6f6e6579000000000000000060448201526064015b60405180910390fd5b60008054600181810183557f290decd9548b62a8d60345a988386fc84ba6bc95484008f6362f93160ef3e56390910180546001600160a01b03191633908117909155825260205260408120805434929061023d9084906105e0565b9091555050565b60008073694aa1769357215de4fac081bf1f309adc3253069050806001600160a01b03166354fd4d506040518163ffffffff1660e01b8152600401602060405180830381865afa15801561029c573d6000803e3d6000fd5b505050506040513d601f19601f820116820180604052508101906102c091906105f9565b91505090565b336001600160a01b037f0000000000000000000000000000000000000000000000000000000000000000161461030f5760405163579610db60e01b815260040160405180910390fd5b60005b60005481101561036557600080828154811061033057610330610612565b60009182526020808320909101546001600160a01b03168252600190526040812055508061035d81610628565b915050610312565b5060408051600080825260208201928390529051610383929061050e565b506040516000908190339047908381818185875af1925050503d80600081146103c8576040519150601f19603f3d011682016040523d82523d6000602084013e6103cd565b606091505b50915091508161040d5760405162461bcd60e51b815260206004820152600b60248201526a10d85b1b0819985a5b195960aa1b60448201526064016101d9565b5050565b6000818154811061042157600080fd5b6000918252602090912001546001600160a01b0316905081565b60008061044661046c565b9050670de0b6b3a764000061045b8285610641565b6104659190610658565b9392505050565b60008073694aa1769357215de4fac081bf1f309adc325306905060008190506000816001600160a01b031663feaf968c6040518163ffffffff1660e01b815260040160a060405180830381865afa1580156104cb573d6000803e3d6000fd5b505050506040513d601f19601f820116820180604052508101906104ef9190610699565b5050509150508064174876e80061050691906106e9565b935050505090565b828054828255906000526020600020908101928215610563579160200282015b8281111561056357825182546001600160a01b0319166001600160a01b0390911617825560209092019160019091019061052e565b5061056f929150610573565b5090565b5b8082111561056f5760008155600101610574565b60006020828403121561059a57600080fd5b81356001600160a01b038116811461046557600080fd5b6000602082840312156105c357600080fd5b5035919050565b634e487b7160e01b600052601160045260246000fd5b808201808211156105f3576105f36105ca565b92915050565b60006020828403121561060b57600080fd5b5051919050565b634e487b7160e01b600052603260045260246000fd5b60006001820161063a5761063a6105ca565b5060010190565b80820281158282048414176105f3576105f36105ca565b60008261067557634e487b7160e01b600052601260045260246000fd5b500490565b805169ffffffffffffffffffff8116811461069457600080fd5b919050565b600080600080600060a086880312156106b157600080fd5b6106ba8661067a565b94506020860151935060408601519250606086015191506106dd6080870161067a565b90509295509295909350565b80820260008212600160ff1b84141615610705576107056105ca565b81810583148215176105f3576105f36105ca56fea2646970667358221220299bbd6dae725654f8a42dd6d6b90ff05e37773a09a9dc17e93ec92b7087ca6664736f6c63430008140033","linkReferences":{}},"methodIdentifiers":{"addressToAmountFunded(address)":"3e47d6f3","fund()":"b60d4288","funders(uint256)":"dc0d3dff","getVersion()":"0d8e6e2c","minimumUsd()":"098de820","owner()":"8da5cb5b","withdraw()":"3ccfd60b"},"id":24}